:020000040800F2
:10000000B80A0020650100088B0100088D01000876
:1000100000000000000000000000000000000000E0
:100020000000000000000000000000008F01000838
:10003000000000000000000091010008930100088A
:100040009501000895010008950100089501000838
:100050009501000895010008950100089501000828
:100060009501000895010008950100089501000818
:100070009501000895010008950100089501000808
:100080009501000800000000000000009501000834
:1000900000000000950100084D0E000895010008C1
:1000A0000000000095010008950100089501000876
:1000B00095010008000000008D0700089501000868
:1000C00000F002F800F03EF80CA030C80838241800
:1000D0002D18A246671EAB4654465D46AC4201D180
:1000E00000F030F87E460F3E0FCCB6460126334274
:1000F00000D0FB1AA246AB4633431847F40E00006B
:10010000140F0000103A02D378C878C1FAD8520709
:1001100001D330C830C101D504680C6070470000BD
:100120000023002400250026103A01D378C1FBD813
:10013000520700D330C100D50B6070471FB51FBDFB
:1001400010B510BD00F0F8F81146FFF7F7FF00F00A
:100150001DFF00F010F903B4FFF7F2FF03BC00F03D
:1001600017F900000F4880F308880F480168090E4E
:100170000E4A914205D10E480E4901600E480F49C2
:1001800001600F4880470F480047FEE7FEE7FEE7A3
:10019000FEE7FEE7FEE700000B480C490C4A0D4B5A
:1001A00070470000B80A0020040000001F00000093
:1001B0001810024001000000000001400000000093
:1001C000ED0D0008C1000008B8040020B80A0020A6
:1001D000B8060020B8060020002203098B422CD369
:1001E000030A8B4211D300239C464EE003460B4387
:1001F0003CD4002243088B4231D303098B421CD3E9
:10020000030A8B4201D394463FE0C3098B4201D3DA
:10021000CB01C01A524183098B4201D38B01C01A12
:10022000524143098B4201D34B01C01A5241030989
:100230008B4201D30B01C01A5241C3088B4201D338
:10024000CB00C01A524183088B4201D38B00C01AE5
:10025000524143088B4201D34B00C01A5241411A0C
:1002600000D201465241104670475DE0CA0F00D0EF
:100270004942031000D34042534000229C460309E8
:100280008B422DD3030A8B4212D3FC22890112BA6E
:10029000030A8B420CD3890192118B4208D3890146
:1002A00092118B4204D389013AD0921100E089095E
:1002B000C3098B4201D3CB01C01A524183098B423F
:1002C00001D38B01C01A524143098B4201D34B0128
:1002D000C01A524103098B4201D30B01C01A52418B
:1002E000C3088B4201D3CB00C01A524183088B4212
:1002F00001D38B00C01A5241D9D243088B4201D39B
:100300004B00C01A5241411A00D201466346524185
:100310005B10104601D34042002B00D54942704784
:1003200063465B1000D3404201B50020C046C04682
:1003300002BD704770477047754600F025F8AE461D
:10034000050069465346C008C000854618B020B570
:10035000FFF722FF60BC00274908B6460026C0C54B
:10036000C0C5C0C5C0C5C0C5C0C5C0C5C0C5403D6D
:1003700049008D46704710B50446C046C046204629
:10038000FFF7E9FE10BD000000487047540400204C
:1003900001491820ABBEFEE72600020070470000AE
:1003A000F0B5012676028A1B082410250423B142E9
:1003B00039D011DC202930D007DC012928D00429CC
:1003C00029D0082900D1C560F0BD402927D0FF39C8
:1003D0000139F9D14360F0BD3F214902571A002687
:1003E0008A4224D00ADCFF3AFF3A023A1DD00121AA
:1003F00089028A42EFD186614360F0BD0121C903C1
:10040000791A0ED0012212049142F6D14560F0BD56
:1004100008498160F0BDC460F0BD0461F0BD0561B4
:10042000F0BD4460F0BD4360F0BD4360F0BD866147
:100430004360F0BD0101010010B501214C062046CA
:1004400000F0A0FB0021204600F09CFB10BD000046
:1004500010B5827A0123194691402A4A14681C4338
:100460001460D3698B43D361037B002B12D1D36813
:100470008B43D360C38844881B042343847AE400FD
:10048000A4182364838804881B042343847AE4002B
:10049000A4186364037B012B12D1D3680B43D36090
:1004A000038844881B042343847AE400A41823644B
:1004B0008388C4881B042343847AE400A4186364FB
:1004C000C37A002B06D053680B4353600389002B7B
:1004D00004D006E053688B435360F7E753698B43BE
:1004E00053610389012B02D153690B435361407B54
:1004F000012802D1D0690843D0611068400840004B
:10050000106010BD0066004010B50246002053691F
:100510000B4212D0FF2401340B1BA1425AD018DC2D
:10052000082943D00ADC012936D0022939D0042910
:1005300003D1D068082100F091F910BD10293AD0FC
:1005400020293DD04029F8D11069102100F086F90A
:1005500010BD7F2109025C1A8B424AD00FDCFF3BA1
:10056000013B3CD0FF3BFF3B023B3DD001218902D8
:100570008B42EDD19069702100F070F910BD01211E
:10058000C903611A21D001231B049942F6D1506896
:10059000102100F063F910BD9068184900F05EF971
:1005A00010BDD068032100F059F910BDD0681021AA
:1005B00000F054F910BD1069032100F04FF910BD8F
:1005C0001069082100F04AF910BD5068082100F0B8
:1005D00045F910BD9069012100F040F910BD906906
:1005E000022100F03BF910BD9069042100F036F9BA
:1005F00010BD5068042100F031F910BD0101010067
:10060000002A03D042690A434261704742698A4323
:100610004261704710B5002203680224A3430360BF
:100620000368012423430360384B00E0521C4468F4
:10063000E40701D19A42F9D14268D2073ED08C79C1
:100640008022012C3CD0046894430460CC79402281
:10065000012C39D00468944304600C7A2022012CC8
:1006600036D00468944304604C7A1022012C33D0B5
:100670000468944304608C7A0822012C30D004680A
:1006800094430460CC7A0422012C2DD00468944356
:1006900004608A78CC789207240622430C792404DB
:1006A00022434C79098824052243491E0A43C2612A
:1006B000016849084900016000211AE0002010BDCE
:1006C000046814430460C1E7046814430460C4E789
:1006D000046814430460C7E7046814430460CAE76D
:1006E000046814430460CDE7046814430460D0E751
:1006F000491C4268D20701D09942F9D14068C0072D
:1007000001D0002010BD012010BD0000FFFFFF0040
:1007100030B50B011B18FF3381331C6B04252C40B3
:100720001472002C2AD01C6BE40854601C6B022548
:100730002C4054725C6B2407240F94725C6B240A67
:10074000D4749C6BD4729C6B240A14739C6B240C21
:1007500054739C6B240E9473DC6BD473DC6B240A8F
:100760001474DC6B240C5474DB6B1B0E937420220A
:10077000002907D001691143016130BD1C6B640D74
:100780001460D3E7C1681143C16030BDF0B585B0D6
:100790002E4C02212046FFF7B7FE002853D002213D
:1007A0002046FFF7FDFD2A4901220A706A46002112
:1007B0002046FFF7ADFF0021264C274D267800226A
:1007C000330158194254491CC9B21029FAD3694659
:1007D000097A002911D00199090EE9540199090CEF
:1007E00041700199090A81700199C17002714271C9
:1007F0006946897A8171C2710DE000990905090F76
:10080000E954009941708270C27002714271694668
:10081000897A8171C27100216A466B46927A05E03D
:100820005D18ED7A47183D72491CC9B28A42F7D863
:10083000761CB006800E20700920C006818A012235
:1008400092025140818205B0F0BD0000006400407A
:1008500002000020000000202000002002460020AE
:100860000A4200D001207047F0B500220325012381
:1008700093400C681C409C422AD10C79012C01D079
:10088000022C12D1876854002E46A640B7438760D9
:100890004E79A64084682643866084889C43848081
:1008A00084888B7993401C438480066853002C46CF
:1008B0009C40A64306600E7907689E403E43066052
:1008C000C668A643C660CC799C40C3681C43C4601C
:1008D000521C102ACBD3F0BD10B54B07DB0E9A404B
:1008E000C90889000818016A0F249C40A1430162CD
:1008F000016A1143016210BD0449016000210171C8
:10090000012242718171C17170470000FFFF000038
:100910000249014808607047CCCC0000003000401C
:100920000249014808607047AAAA00000030004050
:10093000014948607047000000300040014988606C
:100940007047000000300040014908607047000017
:100950000030004070B5184E3046FFF76DFD174966
:1009600000248C710125CD710D724C728C72CC7289
:100970008C70CC70072008710620487108803046C2
:10098000FFF748FE012202213046FFF739FE0C48EE
:100990008472C4720573048044808480C48004819E
:1009A0004573FFF755FD07481E210170447085709F
:1009B00000F0A4F870BD0000006400402004002096
:1009C0002C0400200C000020F8B51948FFF794FF14
:1009D000174C01262671B002206000256571E57173
:1009E0000927FF0621463846FFF73EFF0220207107
:1009F0000320C00220606571E67121463846FFF78A
:100A000033FF04220B213846FFF766FF04220C2136
:100A10003846FFF761FF0420206021463846FFF783
:100A200023FF012202213846FFF756FFF8BD0000E0
:100A30000400002010B5FFF76BFF0848FFF784FFA4
:100A40000320FFF775FF7D20C000FFF777FF044804
:100A5000C1680029FCD1FFF763FF10BD55550000A8
:100A60000030004010B501214C04204600F06EF823
:100A70000121204600F078F80121480600F074F8C2
:100A80000121880400F08CF810BD000010B50C495D
:100A9000EF2008817D210A48C9012038C16282897E
:100AA00001210A43828102880A43028005481622F6
:100AB000027002224270817000F020F810BD000028
:100AC000204801400C00002010B5094800F052FAFF
:100AD00007480849016008210161074C014620468A
:100AE00000F0ECF90121204600F0D4F910BD00001F
:100AF0003C04002090D003000044004030B58278D0
:100B000001240178002A16D08B080E4A9B009A18FF
:100B100013688907C90EFF258D40AB434578AD07A3
:100B20002D0E8D401D4315600078C006C00E844018
:100B30000548046030BDC806C00E844002488030BD
:100B4000046030BD00E400E000E100E0054A002957
:100B500003D051690143516170475169814351612B
:100B60007047000000100240054A002903D0D169F7
:100B70000143D1617047D1698143D1617047000061
:100B800000100240054A002903D011690143116198
:100B900070471169814311617047000000100240E5
:100BA000054A002903D09169014391617047916919
:100BB000814391617047000000100240F8B504467F
:100BC00000215C4E70680C2210405B4D002821D043
:100BD0005A4A042820D0082820D00C2839D0256073
:100BE0007068F02210400009554B1F5C20680246D7
:100BF000FA4094466260726807273F023A40120A40
:100C00009B5C6246DA40A260336BDB0524D44D4B1B
:100C1000E36029E02560E3E72260E1E771680F20E7
:100C20008004014070680323DB0318408F0CBF1C55
:100C300000280AD0F06A0107090F491C1046FFF787
:100C4000CBFA784301462160CAE73F483946414321
:100C5000F9E73E482060C3E773685B0402D4530899
:100C6000E36001E09308E360336B5F06384B03D425
:100C7000374F1237276100E02361376BFF0601D43D
:100C8000656100E06061376BBF070ED0376BBF074F
:100C9000BF0F012F0BD0376BBF07BF0F022F08D03C
:100CA000376BFF43BF0706D006E0A26104E0A061F6
:100CB00002E0A36100E0A561376BBF03BF0F0FD057
:100CC000376BBF03BF0F012F0CD0376BBF03BF0FB4
:100CD000022F09D0376BBF03BF0F032F06D006E0EA
:100CE000E26104E0E06102E0E36100E0E561376BAE
:100CF0003F03BF0F0FD0326B1203920F012A0CD0AB
:100D0000306B0003800F022809D0306B0003800F86
:100D1000032806D006E0226204E0206202E023629B
:100D200000E02562306B000602D408486062F8BD1E
:100D30006162F8BD0010024000127A00001BB7008B
:100D400010000020809FD50000093D00006CDC02EF
:100D5000008000003CB50023019300932148016806
:100D60000124240421430160610005252D0302684C
:100D70000A400092019A521C0192009A002A02D164
:100D8000019AAA42F3D10168890302D50121009199
:100D900000E000930099012923D1134A1121116029
:100DA000416841604168416041687F22D2039143BC
:100DB00041604168214341600168012212061143EC
:100DC000016001688901FCD541688908890041609A
:100DD000416802221143416041680907890F0229D5
:100DE000FAD13CBD001002400020024010B514486A
:100DF00001680122114301604168124A11404160BB
:100E00000168114A11400160016801229204914376
:100E1000016041683F22120491434160C16A09099F
:100E20000901C162016BFF22543291430163416B9E
:100E300049084900416300218160FFF78BFF10BD25
:100E4000001002400CB8FF08FFFFF6FE10B50E4878
:100E5000018A490849000182FFF762FD0B490878C1
:100E6000401CC0B2087009280DD100200870084944
:100E70000A78002A06D10922D206938A0124A40204
:100E800063409382087010BD004801400F000020AD
:100E900002000020002904D00168012211430160F2
:100EA0007047016849084900016070470246002008
:100EB000D2690A4200D001207047000030B58BB0E3
:100EC00004460D4620684008400020606068032109
:100ED00009038843A9680143616020681E490840EE
:100EE000EA68696811432A69024311432160A068D6
:100EF00003210902884369690143A16001A8FFF742
:100F00005DFE1648844201D107980AE014488442E5
:100F100001D1089805E01348844201D1099800E006
:100F200003982168090404D540002968FFF754F9A3
:100F300002E02968FFF750F92A6852088A4200D86F
:100F4000401C2168090404D50107490F064A1040D6
:100F50000843A0810BB030BDF3E9FFFF003801402A
:100F60000044004000480040F0FF0000C905C90DE2
:100F7000018570474B21C9010160002141608160FA
:100F8000C1600C220261416170470000FFF752FD11
:100F9000FFF768FDFFF718FDFFF778FDFFF794FDF9
:100FA000FFF7D8FC0F4E104D687829788842FBD0A7
:100FB00000240E4F80213046FFF778FF0028F9D03B
:100FC00068780001C019015D3046FFF7CFFF641C4F
:100FD000E4B2102CEED36878401C8006800E687056
:100FE000E2E7000000440040000000202000002054
:100FF000101000080000002020000000040100087C
:101000003010000820000020980A0000200100088D
:1010100000000000000000000000000000000000D0
:10102000000000000102030401020304060708098E
:040000050800016589
:00000001FF
