:020000040800F2
:10000000A8060020650100088B0100088D0100088A
:1000100000000000000000000000000000000000E0
:100020000000000000000000000000008F01000838
:10003000000000000000000091010008930100088A
:100040009501000895010008950100089501000838
:100050009501000895010008950100089501000828
:100060009501000895010008950100089501000818
:100070009501000895010008950100089501000808
:100080009501000800000000000000009501000834
:100090000000000095010008DD0D00089501000832
:1000A000000000009501000895010008CD1000082F
:1000B0009501000800000000E9060008950100080D
:1000C00000F002F800F03EF80CA030C80838241800
:1000D0002D18A246671EAB4654465D46AC4201D180
:1000E00000F030F87E460F3E0FCCB6460126334274
:1000F00000D0FB1AA246AB46334318471C11000040
:100100003C110000103A02D378C878C1FAD85207DF
:1001100001D330C830C101D504680C6070470000BD
:100120000023002400250026103A01D378C1FBD813
:10013000520700D330C100D50B6070471FB51FBDFB
:1001400010B510BD00F04BF81146FFF7F7FF01F0B6
:1001500039F800F063F803B4FFF7F2FF03BC00F0D6
:1001600069F800000F4880F308880F480168090EFD
:100170000E4A914205D10E480E4901600E480F49C2
:1001800001600F4880470F480047FEE7FEE7FEE7A3
:10019000FEE7FEE7FEE700000B480C490C4A0D4B5A
:1001A00070470000A8060020040000001F000000A7
:1001B0001810024001000000000001400000000093
:1001C0007D0D0008C1000008A8000020A80600203E
:1001D000A8020020A80200207047704770477546AB
:1001E00000F024F8AE46050069465346C008C0003A
:1001F000854618B020B5FFF7CFFF60BC002749083F
:10020000B6460026C0C5C0C5C0C5C0C5C0C5C0C5AE
:10021000C0C5C0C5403D49008D46704710B5044675
:10022000C046C0462046FFF796FF10BD0048704705
:100230004800002001491820ABBEFEE7260002005E
:1002400070470000F0B5012676028A1B08241025AD
:100250000423B14239D011DC202930D007DC012938
:1002600028D0042929D0082900D1C560F0BD402933
:1002700027D0FF390139F9D14360F0BD3F21490250
:10028000571A00268A4224D00ADCFF3AFF3A023A83
:100290001DD0012189028A42EFD186614360F0BD01
:1002A0000121C903791A0ED0012212049142F6D11C
:1002B0004560F0BD08498160F0BDC460F0BD0461D7
:1002C000F0BD0561F0BD4460F0BD4360F0BD43602A
:1002D000F0BD86614360F0BD0101010010B5012150
:1002E0004C06204600F0E2FC0021204600F0DEFC37
:1002F00010BD000010B5827A0123194691402A4AA8
:1003000014681C431460D3698B43D361037B002BB7
:1003100012D1D3688B43D360C38844881B04234322
:10032000847AE400A4182364838804881B0423438C
:10033000847AE400A4186364037B012B12D1D36890
:100340000B43D360038844881B042343847AE4006E
:10035000A41823648388C4881B042343847AE4009C
:10036000A4186364C37A002B06D053680B43536010
:100370000389002B04D006E053688B435360F7E7F2
:1003800053698B4353610389012B02D153690B439A
:100390005361407B012802D1D0690843D0611068C5
:1003A00040084000106010BD0066004010B50246D5
:1003B000002053690B4212D0FF2401340B1BA142D1
:1003C0005AD018DC082943D00ADC012936D002298A
:1003D00039D0042903D1D068082100F09DFA10BD5E
:1003E00010293AD020293DD04029F8D11069102198
:1003F00000F092FA10BD7F2109025C1A8B424AD0AC
:100400000FDCFF3B013B3CD0FF3BFF3B023B3DD0C1
:10041000012189028B42EDD19069702100F07CFAB4
:1004200010BD0121C903611A21D001231B04994287
:10043000F6D15068102100F06FFA10BD906818498D
:1004400000F06AFA10BDD068032100F065FA10BD13
:10045000D068102100F060FA10BD1069032100F08F
:100460005BFA10BD1069082100F056FA10BD506803
:10047000082100F051FA10BD9069012100F04CFAFA
:1004800010BD9069022100F047FA10BD9069042167
:1004900000F042FA10BD5068042100F03DFA10BD92
:1004A0000101010080694006400F00017047002AE9
:1004B00003D042690A434261704742698A434261FC
:1004C0007047000010B5002203680224A3430360B4
:1004D0000368012423430360384B00E0521C446846
:1004E000E40701D19A42F9D14268D2073ED08C7913
:1004F0008022012C3CD0046894430460CC794022D3
:10050000012C39D00468944304600C7A2022012C19
:1005100036D00468944304604C7A1022012C33D006
:100520000468944304608C7A0822012C30D004685B
:1005300094430460CC7A0422012C2DD004689443A7
:1005400004608A78CC789207240622430C7924042C
:1005500022434C79098824052243491E0A43C2617B
:10056000016849084900016000211AE0002010BD1F
:10057000046814430460C1E7046814430460C4E7DA
:10058000046814430460C7E7046814430460CAE7BE
:10059000046814430460CDE7046814430460D0E7A2
:1005A000491C4268D20701D09942F9D14068C0077E
:1005B00001D0002010BD012010BD0000FFFFFF0092
:1005C00030B50B011B18FF3381331C6B04252C4005
:1005D0001472002C2AD01C6BE40854601C6B02259A
:1005E0002C4054725C6B2407240F94725C6B240AB9
:1005F000D4749C6BD4729C6B240A14739C6B240C73
:1006000054739C6B240E9473DC6BD473DC6B240AE0
:100610001474DC6B240C5474DB6B1B0E937420225B
:10062000002907D001691143016130BD1C6B640DC5
:100630001460D3E7C1681143C16030BD30B50246D4
:10064000002093685B010AD49068000101D5012065
:1006500005E09068C00001D5022000E004200428D5
:1006600038D003019A18FF3281321368DB07DB0FA1
:1006700013600B7A002B2ED014684D681C434B7A04
:10068000ED002B431C4314608B7A1B071B0F8B72EE
:1006900053681B091B01536053688C7A23435360D2
:1006A0008C7BCB7A240623434C7B0D7B24042D02C8
:1006B0002C43234393608C7CCB7B240623434C7CCC
:1006C000097C240409020C432343D36011680123ED
:1006D0001943116030BD13684C7A23430C886405BC
:1006E00023431360D0E70000F0B585B0804D0121B1
:1006F0002846FFF75BFE002803D001212846FFF7BC
:10070000A1FD02212846FFF751FE002876D00221E4
:100710002846FFF797FD774901240C706A460021AF
:100720002846FFF74DFF6846C77C20260422082094
:1007300010237149002F0CD0012F61D04024022FCB
:1007400076D0032F5AD16846C07B8209012A6ED029
:10075000C6E06D46ED7AAD06AF0F012F02D10F78DE
:1007600037430F70AD0F03D10D78DF2635400D7084
:100770006D462D7BAE07B60F012E02D10E781643C3
:100780000E70AA0703D10A78FB2632400A702A07A6
:10079000950F012D02D10D7805430D70900F03D1F7
:1007A0000878F722104008706846407B8207920F55
:1007B000012A02D10A7822430A70820703D10A78FB
:1007C000520852000A700207940F012C03D10C78D2
:1007D00002252C430C70920F03D10A78FD2422408D
:1007E0000A708006820F012A02D10A781A430A7021
:1007F000800F03D10878EF221040087005B0F0BDDB
:100800003E4800210172AE21016084726121C172F3
:1008100001210920C903C00600F0CCF83749284659
:10082000FFF70CFF2846FFF73DFEE7E700E054E046
:100830006946334DC97A297069460D7B31490D707F
:10084000A907314F890F06D0012907D0022907D007
:10085000032908D106E00221397004E03A7002E071
:10086000387000E03B702907284F890F06D0012916
:1008700006D0022906D0032907D105E03B7004E029
:100880003A7002E0387000E03C70A906204F890FF2
:1008900006D0012906D0022906D0032907D105E098
:1008A0003C7004E03A7002E0387000E03B70194C94
:1008B000A90906D0012906D0022906D0032907D1AB
:1008C00005E0267004E0227002E0207000E0237052
:1008D00000F02EFC00F04EFC90E70A7822430A70EC
:1008E00080098BD10878BF221040087086E700008D
:1008F00000640040000000200800002018000020D4
:10090000010000200200002003000020040000205D
:100910000500002006000020024600200A4200D008
:1009200001207047F0B500220325012393400C6895
:100930001C409C422AD10C79012C01D0022C12D1EE
:10094000876854002E46A640B74387604E79A6407C
:1009500084682643866084889C43848084888B795D
:1009600093401C438480066853002C469C40A64359
:1009700006600E7907689E403E430660C668A6433F
:10098000C660CC799C40C3681C43C460521C102ACA
:10099000CBD3F0BD10B54B07DB0E9A40C9088900D8
:1009A0000818016A0F249C40A1430162016A1143A7
:1009B000016210BD01857047816170470449016083
:1009C00000210171012242718171C17170470000E3
:1009D000FFFF00000249014808607047CCCC0000CE
:1009E000003000400249014808607047AAAA000090
:1009F000003000400149486070470000003000406E
:100A000001498860704700000030004001490860DB
:100A10007047000000300040F8B5304C2046FFF72A
:100A20005DFC2F4900258D710126CE710D724D722E
:100A30008D72CD728D70CD700720087106204871BF
:100A400008802046FFF73EFD012202212046FFF7E5
:100A50002EFD244CA572E57226730520000220802D
:100A60006580FF277F01A780E5802581667320468A
:100A7000FFF740FCA672E5722673572080012080A4
:100A80006580A780E580258166732046FFF732FCEC
:100A90000220A072E5722673AD204001208065809F
:100AA000A780E580258166732046FFF723FC03209D
:100AB000A072E57226731120400120806580A78016
:100AC000E580258166732046FFF714FC06481E2149
:100AD00001704570867000F097F8F8BD0064004022
:100AE0002C0000203800002014000020F8B51D481C
:100AF000FFF764FF1B4C0025257103202060657102
:100B00000126E671184F21463846FFF70BFF267184
:100B10008120C00020606571E57109202146C00672
:100B2000FFF700FFD020206021463846FFF7FAFE8D
:100B3000022020710320C00220606571E671092047
:100B40002146C006FFF7EEFE092004220B21C00655
:100B5000FFF720FF092004220C21C006FFF71AFF2F
:100B6000F8BD00000C0000200004004810B5FFF79D
:100B700031FF0848FFF74AFF0320FFF73BFF7D20C6
:100B8000C000FFF73DFF0448C1680029FCD1FFF712
:100B900029FF10BD555500000030004070B50121FF
:100BA0004C04204600F066F801218D04284600F030
:100BB00061F80121480600F06BF80121204600F0A1
:100BC00083F80121284600F07FF870BD10B50C496C
:100BD000EF2008817D210A48C9012038C16282893D
:100BE00001210A43828102880A43028005481622B5
:100BF000027002224270817000F006F810BD000001
:100C0000204801401400002030B58278012401788A
:100C1000002A16D08B080E4A9B009A181368890781
:100C2000C90EFF258D40AB434578AD072D0E8D4095
:100C30001D4315600078C006C00E8440054804605E
:100C400030BDC806C00E844002488030046030BD0C
:100C500000E400E000E100E0054A002903D011694A
:100C600001431161704711698143116170470000B0
:100C700000ED00E0054A002903D0516901435161AC
:100C80007047516981435161704700000010024074
:100C9000054A002903D0D1690143D1617047D16968
:100CA0008143D1617047000000100240054A0029CD
:100CB00003D01169014311617047116981431161CA
:100CC0007047000000100240054A002903D09169D6
:100CD00001439161704791698143916170470000C0
:100CE000001002403CB500230193009321480168A5
:100CF0000124240421430160610005252D030268BD
:100D00000A400092019A521C0192009A002A02D1D4
:100D1000019AAA42F3D10168890302D50121009109
:100D200000E000930099012923D1134A1121116099
:100D3000416841604168416041687F22D20391432C
:100D4000416041682143416001680122120611435C
:100D5000016001688901FCD541688908890041600A
:100D6000416802221143416041680907890F022945
:100D7000FAD13CBD001002400020024010B51448DA
:100D800001680122114301604168124A114041602B
:100D90000168114A114001600168012292049143E7
:100DA000016041683F22120491434160C16A090910
:100DB0000901C162016BFF22543291430163416B0F
:100DC00049084900416300218160FFF78BFF10BD96
:100DD000001002400CB8FF08FFFFF6FEF8B5AE4861
:100DE000018A490849000182FFF7FCFDAB490878F8
:100DF000401CC0B20870092803D100200870A8491F
:100E00000870A84802210078FD220307A64EA74CCF
:100E10000125002B23D0C3070FD0430705D5338A04
:100E2000DB0729D02378AB432370030705D5338A2A
:100E3000DB0725D023782B43237083070FD5430787
:100E400005D5338ADB0720D02378134023700307AE
:100E500005D5338ADB071CD023780B4323700309A5
:100E600046D0C3062AD543061BD5338A9B0714D424
:100E700023782B43237014E023782B432370D4E78B
:100E800023785B085B002370D7E723780B4323703C
:100E9000DDE7237813402370E1E723785B085B00EC
:100EA000237003060AD5338A9B0704D423785B0892
:100EB0005B00237002E023782B432370830617D551
:100EC000430609D5338A9B0703D423780B43237049
:100ED00002E0237813402370000609D5308A80078A
:100EE00003D420781040207002E02078084320705E
:100EF00000276F480278002A2AD000216D48007828
:100F00008446284688406346184203D0104201D0E8
:100F1000012703E0491CC9B20729F2D3002F13D0DF
:100F2000D0060CD52078C00704D010213046FFF73A
:100F300043FD0DE010213046FFF73CFD08E0102195
:100F40003046FFF739FD03E010213046FFF732FD50
:100F5000002759480278002A2AD0002055490978EC
:100F60008C46294681406346194203D0114201D084
:100F7000012703E0401CC0B20728F2D3002F13D092
:100F8000D0060CD52078C00704D040213046FFF7AA
:100F900013FD0DE040213046FFF70CFD08E0402135
:100FA0003046FFF709FD03E040213046FFF702FD20
:100FB000002742480278002A2AD000203D490978BB
:100FC0008C46294681406346194203D0114201D024
:100FD000012703E0401CC0B20728F2D3002F13D032
:100FE000D0060CD52078C00704D080213046FFF70A
:100FF000E3FC0DE080213046FFF7DCFC08E08021B7
:101000003046FFF7D9FC03E080213046FFF7D2FCE1
:1010100000232B480278002A26D0002025490E788C
:1010200029468140314203D0114201D0012303E01F
:10103000401CC0B20728F3D30920C006002B10D0F3
:10104000D1060AD52178C90703D00821FFF7B4FCDF
:101050000AE00821FFF7AEFC06E00821FFF7ACFC30
:1010600002E00821FFF7A6FCF0202178CA0700D093
:10107000F120890701D504210843124900220A7290
:1010800061220A608D72C8720F4C2046FFF7D6FAB3
:101090002046FFF707FAF8BD00480140170000207E
:1010A000000000200100002000040048070000208C
:1010B000030000200800002004000020050000209C
:1010C00006000020180000200064004010B5064C07
:1010D0000449204600F00AF8002802D0204600F01B
:1010E00023F810BD050105000038014030B500248B
:1010F0000A04130E01252A468A40012B0ED0022B2A
:101100000FD083681340090C8D40C0692840002B24
:1011100002D0002800D00124204630BD03681340CF
:10112000F1E743681340EEE7808CC005C00D7047BF
:1011300010B50E48C168C907FCD1C16820228906D4
:10114000002900DAC26001690223194301610849DC
:1011500041610169402421430161C168C907FCD193
:10116000C26001699943016110BD00000020024086
:101170001478000810B51048C168C907FCD1C168CF
:1011800020228906002900DAC2600169012319437F
:1011900001610A4B0A4C1978A182C1688906FCD505
:1011A000C26059782183C1688906FCD5C260016993
:1011B00049084900016110BD0020024001000020E3
:1011C00000780008FFF7D2FC0F4869210170002168
:1011D00041700F490D4A4A600E4A4A6002218170EF
:1011E0001021C1704021017120214171FFF7D6FC0F
:1011F000FFF77CFCFFF710FCFFF7E8FC0121022061
:10120000FFF72AFD30BFFEE70100002023016745FC
:1012100000200240AB89EFCD38120008000000200A
:1012200018000000040100085012000818000020F7
:1012300090060000200100080000000000000000EF
:10124000000000000000000000000000000000009E
:040000050800016589
:00000001FF
